:020000040800F2
:10000000005000204D0B0008450800084708000874
:10001000490800084B0800084D08000800000000CF
:100020000000000000000000000000004F08000871
:100030005108000800000000530800085508000897
:10004000950B0008950B0008950B0008950B000810
:10005000950B0008950B0008950B0008950B000800
:10006000950B0008950B0008950B0008950B0008F0
:10007000950B0008950B0008950B0008950B0008E0
:10008000950B0008950B0008950B0008950B0008D0
:10009000950B0008950B0008950B0008950B0008C0
:1000A000950B0008950B0008950B0008950B0008B0
:1000B0005D080008950B0008950B0008950B0008DB
:1000C000950B0008950B0008950B0008950B000890
:1000D000950B0008950B0008950B00086D080008AB
:1000E000950B0008950B0008950B00080000000018
:1000F0000000000000000000000000000000000000
:0C01000000000000000000005FF808F1A3
:10010C000348044B834202D0034B03B1184770479A
:10011C001000002010000020000000000548064BD5
:10012C001B1AD90F01EBA301491002D0034B03B1E9
:10013C00184770471000002010000020000000003D
:10014C0010B5064C237843B9FFF7DAFF044B13B113
:10015C000448AFF300800123237010BD1000002071
:10016C00000000006C2A000808B5054B1BB10549BE
:10017C000548AFF30080BDE80840FFF7CFBF00BFD4
:10018C0000000000140000206C2A000830B58FB06D
:10019C000546002401942E22214602A802F08CF878
:1001AC00214606E001354A1C3831694401F8343CDB
:1001BC00D1B22B78002BF5D14B1CDBB201F13802FC
:1001CC006A440D2002F8340C8A1C38336B440A2123
:1001DC0003F8341C4FF6FF73D2B201A9044801F0A6
:1001EC000BFE034802F034F82128FAD00FB030BDD2
:1001FC001C02002038B50D461446FFF7C7FFD5B1D9
:10020C000CB9002038BD013CA4B294B10A2000F016
:10021C0007FD2946094802F06DFA0028F3D00021A9
:10022C00074B19704FF48072044802F045F8012016
:10023C00E8E70020E6E70020E4E700BF44000020E8
:10024C004000002010B5184C322221461748FFF709
:10025C00D1FF142216491748FFF7CCFF4FF47A70E0
:10026C0000F0DEFC4FF47A7000F0DAFC4FF47A7098
:10027C0000F0D6FC4FF47A7000F0D2FCC822214674
:10028C000D48FFF7B7FF142221460C48FFF7B2FFC9
:10029C00C82221460A48FFF7ADFF32222146094801
:1002AC00FFF7A8FF10BD00BF842A00088C2A0008A5
:1002BC00982A0008A02A0008A82A0008CC2A0008BE
:1002CC00D82A0008EC2A00082DE9F04389B0002454
:1002DC0004940594069407942E4B9A6942F01002EC
:1002EC009A619A6902F010020092009A9A6942F09F
:1002FC0020029A619A6902F020020192019A9A698D
:10030C0042F004029A619A6902F004020292029A83
:10031C009A6942F008029A619B6903F008030393FF
:10032C00039BDFF8749022464FF40051484600F0CE
:10033C0081FEDFF86880224641F67801404600F0E5
:10034C0079FE174F22463021384600F073FE4FF4E9
:10035C00005304930126059606940225079504A9DB
:10036C00484600F059FD41F678030493059606942F
:10037C00079504A9404600F04FFD302304930596E1
:10038C000694079504A9384600F046FD09B0BDE86F
:10039C00F08300BF00100240001001400008014033
:1003AC00000C014038B5224B1B78FF2B16D0214A8C
:1003BC001078214AD054214A117831B9204A127848
:1003CC009C1A1D4D2C5D3C2C11D00133184A137016
:1003DC00012218491B4801F05CFF38BD0021144B69
:1003EC0019704FF48072144801F066FFF0E7013287
:1003FC00D2B2134C22703E2801D00D2AE5D99A1A9C
:10040C00013212E0481C0C4C14F802C00E4C04F8DB
:10041C0001C00A494FF0010C81F800C008494FF0A7
:10042C00000C81F800C00132C1B29342EADACCE789
:10043C004000002041000020440000202D0000203E
:10044C002C0000201C0200203000002072B6FEE7B9
:10045C0000B591B02822002106A801F02DFF002341
:10046C0001930293039304930593012206924FF494
:10047C00803307930A9202220D920E934FF4E013ED
:10048C000F9306A800F0F2FD80B90F23019302210F
:10049C000291002303934FF480620492059301A808
:1004AC0001F016F820B911B05DF804FBFFF7CEFF90
:1004BC00FFF7CCFF08B500F08FFBFFF7C9FFFFF784
:1004CC0003FF00F01FFA00F0D5F900F053FA00F02A
:1004DC00D9FA0122BE49BF4801F0DBFEFFF7B2FE9C
:1004EC008CE03221BC4801F037FF90B10024BB4BAB
:1004FC001C70BB4D4FF480722146284601F0DCFE87
:10050C002C606C60AC60C5F80B40B64B02221A70C4
:10051C0093E03321B04801F01FFF90B10024AF4BA2
:10052C001C70AF4D4FF480722146284601F0C4FE7A
:10053C002C606C60AC60C5F80B40AA4B03221A709F
:10054C007BE03421A44801F007FF90B10024A34BB9
:10055C001C70A34D4FF480722146284601F0ACFE6E
:10056C002C606C60AC60C5F80B409E4B04221A707A
:10057C0063E03521984801F0EFFE00285DD000249F
:10058C00964B1C70964D4FF480722146284601F014
:10059C0093FE2C606C60AC60C5F80B40914B05224F
:1005AC001A704AE0904C01221021204600F042FDC6
:1005BC0000220821204600F03DFD0122402120466A
:1005CC0000F038FD00222021204600F033FD874D3D
:1005DC0001221021284600F02DFD00222021284662
:1005EC0000F028FD01224FF40061204600F022FDAE
:1005FC0000224FF48051204600F01CFD7C4B1B78F0
:10060C00DBB17B4B00221A703121734801F0A4FE40
:10061C0000283FF466AF0024704B1C70704D4FF4F3
:10062C0080722146284601F047FE2C606C60AC605D
:10063C00C5F80B406B4B01221A706A4B1B78012BCF
:10064C00B0D0023B032BD9D8DFE803F00232629220
:10065C00654C01220821204600F0ECFC0022102100
:10066C00204600F0E7FC01222021204600F0E2FCAD
:10067C0000224021204600F0DDFC5C4D01222021AF
:10068C00284600F0D7FC00221021284600F0D2FCAE
:10069C0001224FF48051204600F0CCFC00224FF494
:1006AC000061204600F0C6FC642000F0B9FAA5E712
:1006BC004D4C01221021204600F0BCFC00220821E8
:1006CC00204600F0B7FC01222021204600F0B2FCAD
:1006DC0000224021204600F0ADFC444D0122202197
:1006EC00284600F0A7FC00221021284600F0A2FCAE
:1006FC0001224FF40061204600F09CFC00224FF4D4
:10070C008051204600F096FC642000F089FA75E7D1
:10071C00354C01220821204600F08CFC00221021CF
:10072C00204600F087FC01224021204600F082FC8C
:10073C0000222021204600F07DFC2C4D01221021AE
:10074C00284600F077FC00222021284600F072FC9D
:10075C0001224FF48051204600F06CFC00224FF433
:10076C000061204600F066FC642000F059FA45E771
:10077C001D4C00220821204600F05CFC00221021B8
:10078C00204600F057FC00224021204600F052FC8D
:10079C0000222021204600F04DFC144D0022102197
:1007AC00284600F047FC00222021284600F042FC9D
:1007BC0000224FF48051204600F03CFC00224FF404
:1007CC000061204600F036FC642000F029FA15E7A1
:1007DC00410000201C0200203000002040000020BE
:1007EC00440000203F00002000080140000C0140A4
:1007FC002D00002082B00E4B9A6942F001029A61E2
:10080C009A6902F001020092009ADA6942F0805271
:10081C00DA61DB6903F080530193019B054A53684D
:10082C0023F0E06343F00073536002B0704700BFE5
:10083C000010024000000140FEE7FEE7FEE7FEE785
:10084C00FEE770477047704708B500F0D7F908BD50
:10085C0008B5024800F04AFF08BD00BF8C0100201B
:10086C0008B5024801F0B2FB08BD00BF1C02002015
:10087C007047000000B58DB00023089309930A93CC
:10088C000B9303930493059306930793019302939D
:10089C001A481B4A026047224260836040F2E732EA
:1008AC00C26003614361836101F018F8D0B94FF461
:1008BC008053089308A9114801F048F8A8B90023FF
:1008CC000393049303A90D4801F01BF980B900238D
:1008DC000193029301A9094801F03CF958B90DB0F4
:1008EC005DF804FBFFF7B2FDE1E7FFF7AFFDE6E7CC
:1008FC00FFF7ACFDEBE7FFF7A9FDF0E7D401002013
:10090C00002C014000B587B000230293039304939D
:10091C0005930093019316484FF08042026040F219
:10092C00AF42426083604EF65F22C2600361836116
:10093C0000F0D4FF90B94FF48053029302A90C48F5
:10094C0001F004F868B90023009301936946084844
:10095C0001F000F940B907B05DF804FBFFF776FD34
:10096C00E9E7FFF773FDEEE7FFF770FDF3E700BF74
:10097C008C01002000B58DB00023089309930A93D5
:10098C000B9303930493059306930793019302939C
:10099C001A481B4A026047224260836040F2E732E9
:1009AC00C2600361836100F099FFD0B94FF48053AA
:1009BC00089308A9114800F0C9FFA8B900230393B4
:1009CC00049303A90D4801F09CF880B9002301930E
:1009DC00029301A9094801F0BDF858B90DB05DF8B2
:1009EC0004FBFFF733FDE1E7FFF730FDE6E7FFF728
:1009FC002DFDEBE7FFF72AFDF0E700BF44010020D7
:100A0C000004004000B585B003681B4A934208D02F
:100A1C00B3F1804F10D0194A934221D005B05DF844
:100A2C0004FB174B9A6942F400629A619B6903F4C8
:100A3C0000630193019BF1E703F50433DA6942F09B
:100A4C000102DA61DB6903F001030293029B0022CD
:100A5C0011461C2000F03EF91C2000F04BF9DDE79C
:100A6C00074BDA6942F00202DA61DB6903F0020338
:100A7C000393039BD2E700BF002C0140000400400D
:100A8C000010024008B50A480A4B03604FF4E133EA
:100A9C00436000238360C36003610C224261836165
:100AAC00C36101F079F900B908BDFFF7CFFCFBE792
:100ABC001C0200200048004030B587B00023029390
:100ACC0003930493059302681B4B9A4201D007B021
:100ADC0030BD03F5E433DA6942F48022DA61DA6975
:100AEC0002F480220092009A9A6942F008029A61FC
:100AFC009B6903F008030193019B4FF480630293FD
:100B0C0002230393032305930C4D02A9284600F0FE
:100B1C0083F94FF40063029300240394049402A914
:100B2C00284600F079F922462146272000F0D2F819
:100B3C00272000F0DFF8CAE700480040000C014015
:100B4C00FFF796FE0B480C490C4A002302E0D458E0
:100B5C00C4500433C4188C42F9D3094A094C0023FD
:100B6C0001E013600432A242FBD301F079FEFFF7DF
:100B7C00A1FC70470000002010000020302B000862
:100B8C001000002000040020FEE7000010B5044611
:100B9C000E4B1A784FF47A73B3FBF2F30C4A1068CD
:100BAC00B0FBF3F000F0B4F868B90F2C01D90120B8
:100BBC000AE0002221464FF0FF3000F08BF8054B85
:100BCC001C60002000E0012010BD00BF04000020CC
:100BDC00000000200800002008B5074A136843F005
:100BEC0010031360032000F063F80F20FFF7CEFF13
:100BFC00FFF700FE002008BD00200240034A1168E8
:100C0C00034B1B780B441360704700BF6402002039
:100C1C0004000020014B1868704700BF64020020DC
:100C2C0038B50446FFF7F6FF0546B4F1FF3F02D096
:100C3C00044B1B781C44FFF7EDFF401BA042FAD37A
:100C4C0038BD00BF04000020002808DB0901C9B230
:100C5C0000F1604000F5614080F80013704700F02F
:100C6C000F000901C9B2014B1954704714ED00E093
:100C7C0000B500F00700C0F1070CBCF1040F28BF51
:100C8C004FF0040C031D062B0FD9C31E4FF0FF3E73
:100C9C000EFA0CF021EA000199400EFA03FE22EA4A
:100CAC000E0241EA02005DF804FB0023EEE70000AF
:100CBC00074AD36823F4E0631B041B0C000200F406
:100CCC00E060034343F0BF6343F40033D3607047E9
:100CDC0000ED00E010B50446054BD868C0F30220C7
:100CEC00FFF7C6FF01462046FFF7AEFF10BD00BF61
:100CFC0000ED00E0002807DB00F01F024009012393
:100D0C009340024A42F82030704700BF00E100E0F7
:100D1C000138B0F1807F0BD24FF0E0235861054AC7
:100D2C00F02182F823100020986107221A61704785
:100D3C000120704700ED00E0034690F82120D2B26C
:100D4C00022A06D004228263002280F8202001208F
:100D5C00704701680A6822F00E020A6001680A688E
:100D6C0022F001020A60026CC06B012101FA02F24E
:100D7C00426083F82110002083F8200070470000A7
:100D8C0008B590F82130DBB2022B03D00423836327
:100D9C00012008BD0268136823F00E03136002687B
:100DAC00136823F0010313600368194A934214D0AB
:100DBC00143293421FD0143293421ED014329342F9
:100DCC001ED0143293421ED01432934202D04FF0F4
:100DDC00807203E04FF4801200E001220D4B5A6048
:100DEC00012380F82130002380F82030436B6BB155
:100DFC0098470020CDE71022F0E74FF48072EDE722
:100E0C004FF48052EAE74FF48032E7E70020C0E766
:100E1C00080002400000024070B582B00024A446D5
:100E2C00A2E07E4DAB4210D007D97D4DAB420CD029
:100E3C0005F58035AB4208D013E0A5F58015AB4223
:100E4C0003D005F57025AB4207D18B68002B55D02C
:100E5C00012B4ED04261082403E0A5F58015AB426E
:100E6C00F3D0BEF1FF0F4BD806464FEA8C02336825
:100E7C000F25954023EA050304FA02F2134333606D
:100E8C004B6813F0805F6DD0664B9A6942F001029B
:100E9C009A619B6903F001030193019B4FEA9C0249
:100EAC00951C614B53F825600CF00305AD000F2326
:100EBC00AB4026EA03065D4B984228D003F58063CD
:100ECC00984200F08D8003F58063984200F08A8090
:100EDC0003F58063984218D0042319E0CC68C0E76E
:100EEC00CC680434BDE7CC680834BAE7CC680C3461
:100EFC00B7E702610824B4E70024B2E70424B0E7A2
:100F0C00061DACF108029200B1E7032300E00023B8
:100F1C00AB4033430232444D45F822304B6813F456
:100F2C00801F61D0424A936843EA0E0393604B687A
:100F3C0013F4001F5ED03E4AD36843EA0E03D3601D
:100F4C004B6813F4003F5BD0394A536843EA0E03F5
:100F5C0053604B6813F4803F58D0354A136843EA0A
:100F6C000E0313600CF1010C0B6833FA0CF253D026
:100F7C00012202FA0CF203EA020E32EA0303F1D167
:100F8C004B68122B3FF64DAF122B3FF66AAF01A503
:100F9C0055F823F0570E0008E90E0008F30E000870
:100FAC00050F00086F0E00086F0E00086F0E00088A
:100FBC006F0E00086F0E00086F0E00086F0E000811
:100FCC006F0E00086F0E00086F0E00086F0E000801
:100FDC006F0E00086F0E0008ED0E0008F90E0008E9
:100FEC00012395E7022393E7114A936823EA0E0342
:100FFC0093609CE70E4AD36823EA0E03D3609FE705
:10100C000B4A536823EA0E035360A2E7084A13689D
:10101C0023EA0E031360A5E702B070BD0000221096
:10102C000000311000100240000001400008014097
:10103C00000401400AB10161704709040161704765
:10104C0082B0084B1B68084AA2FB03235B0A00FB17
:10105C0003F3019300BF019B5A1E0192002BF9D19F
:10106C0002B0704700000020D34D6210002800F041
:10107C00F18170B582B00446036813F0010F2CD0D7
:10108C00994B5B6803F00C03042B1DD0964B5B68EB
:10109C0003F00C03082B12D06368B3F5803F41D0EA
:1010AC00002B55D103F1804303F504331A6822F465
:1010BC0080321A601A6822F480221A6037E08A4B58
:1010CC005B6813F4803FE7D0874B1B6813F4003F39
:1010DC0003D06368002B00F0BF81236813F0020F6C
:1010EC0075D0814B5B6813F00C0F5FD07E4B5B6847
:1010FC0003F00C03082B54D02369002B00F08A80DA
:10110C007A4B01221A60FFF785FD0546764B1B686A
:10111C0013F0020F75D1FFF77DFD401B0228F5D9A6
:10112C0003209EE1704A136843F4803313606368B4
:10113C0043B3FFF76FFD05466B4B1B6813F4003F81
:10114C00CBD1FFF767FD401B6428F5D9032088E15C
:10115C00B3F5A02F09D0644B1A6822F480321A60C0
:10116C001A6822F480221A60E1E703F18043A3F5A8
:10117C003C331A6842F480221A601A6842F48032B6
:10118C001A60D4E7FFF746FD0546574B1B6813F46E
:10119C00003FA2D0FFF73EFD401B6428F5D9032089
:1011AC005FE1514B5B6813F4803FA5D14E4B1B683C
:1011BC0013F0020F03D02369012B40F04F814A4AF0
:1011CC00136823F0F803616943EAC10313602368D1
:1011DC0013F0080F33D0A369002B5CD0434B0122D2
:1011EC00C3F88024FFF716FD05463F4B5B6A13F0EE
:1011FC00020F21D1FFF70EFD401B0228F5D9032069
:10120C002FE1394A136823F0F803616943EAC103FB
:10121C001360DCE7354B00221A60FFF7FBFC054638
:10122C00314B1B6813F0020FD1D0FFF7F3FC401BBE
:10123C000228F5D9032014E10120FFF701FF2368F0
:10124C0013F0040F00F09680274BDB6913F0805FDE
:10125C0034D1254BDA6942F08052DA61DB6903F054
:10126C0080530193019B0125214B1B6813F4807F54
:10127C0026D0E368012B3DD0002B53D103F18043E2
:10128C0003F504331A6A22F001021A621A6A22F078
:10129C0004021A6233E0154B0022C3F88024FFF7D6
:1012AC00B9FC0546104B5B6A13F0020FC7D0FFF771
:1012BC00B1FC401B0228F5D90320D2E00025D3E76E
:1012CC000B4A136843F480731360FFF7A3FC0646C4
:1012DC00074B1B6813F4807FCBD1FFF79BFC801B63
:1012EC006428F5D90320BCE0001002400000424203
:1012FC00007000405F4A136A43F001031362E36815
:10130C0033B3FFF787FC06465A4B1B6A13F0020FE8
:10131C002FD1FFF77FFC801B41F288339842F3D921
:10132C0003209EE0052B09D0524B1A6A22F00102D1
:10133C001A621A6A22F004021A62E0E74D4B1A6A2A
:10134C0042F004021A621A6A42F001021A62D6E7EB
:10135C00FFF760FC0646474B1B6A13F0020F08D0E0
:10136C00FFF758FC801B41F288339842F3D90320D5
:10137C0077E0E5B9E369002B72D03E4A526802F07F
:10138C000C02082A56D0022B17D03B4B00221A66AF
:10139C00FFF740FC0446374B1B6813F0007F47D027
:1013AC00FFF738FC001B0228F5D9032059E0314A1D
:1013BC00D36923F08053D361DCE72F4B00221A66EC
:1013CC00FFF728FC05462B4B1B6813F0007F06D05B
:1013DC00FFF720FC401B0228F5D9032041E0236ACB
:1013EC00B3F5803F1AD023494B6823F47413226A57
:1013FC00606A024313434B601F4B01221A66FFF7CE
:10140C0009FC04461B4B1B6813F0007F0ED1FFF741
:10141C0001FC001B0228F5D9032022E0154A536871
:10142C0023F40033A1680B435360DCE7002018E081
:10143C00002016E0012B16D00E4B5B6803F48031B4
:10144C00226A914211D103F47013626A93420ED155
:10145C00002006E001207047012002E0012000E09E
:10146C00002002B070BD0120FBE70120F9E701204C
:10147C00F7E700BF00100240000042420F4B5B68D0
:10148C0003F00C02082A01D00D487047C3F38342C5
:10149C000C49885C13F4803F0BD0084B5B68C3F39A
:1014AC004043094AD35C064A02FB00F0B0FBF3F060
:1014BC007047064B03FB00F0704700BF0010024062
:1014CC0000127A00142B0008102B000800093D00B4
:1014DC00002800F0A08070B50D460446524B1B68E6
:1014EC0003F007038B420BD24F4A136823F0070318
:1014FC000B431360136803F007038B4240F08D809D
:10150C00236813F0020F17D013F0040F04D0474ACE
:10151C00536843F4E0635360236813F0080F04D05E
:10152C00424A536843F460535360404A536823F073
:10153C00F003A1680B435360236813F0010F31D003
:10154C006368012B20D0022B25D0384A126812F088
:10155C00020F64D035494A6822F0030213434B60F2
:10156C00FFF758FB0646314B5B6803F00C036268CF
:10157C00B3EB820F16D0FFF74DFB801B41F2883383
:10158C009842F0D9032045E0284A126812F4003F33
:10159C00E0D101203EE0254A126812F0007FD9D13B
:1015AC00012037E0204B1B6803F00703AB420AD93C
:1015BC001D4A136823F007032B431360136803F0D1
:1015CC000703AB422DD1236813F0040F06D0174A42
:1015DC00536823F4E063E1680B435360236813F012
:1015EC00080F07D0114A536823F46053216943EA6A
:1015FC00C1035360FFF742FF0C4B5B68C3F303134B
:10160C000B4AD35CD8400B4B18600B4B1868FFF798
:10161C00BDFA002070BD012070470120FAE70120BF
:10162C00F8E70120F6E700BF00200240001002405E
:10163C00002B00080000002008000020014B186857
:10164C00704700BF0000002008B5FFF7F7FF044B00
:10165C005B68C3F30223034AD35CD84008BD00BFC8
:10166C0000100240F82A000808B5FFF7E7FF044B0A
:10167C005B68C3F3C223034AD35CD84008BD00BFE8
:10168C0000100240F82A000810B4036A046A24F01F
:10169C0001040462846924F0F00C4CEA021223F079
:1016AC000A030B438261036210BC704710B4036AD7
:1016BC00046A24F010040462846924F4704C4CEA2B
:1016CC00023223F0A00343EA01138261036210BCCF
:1016DC007047836823F070030B4343F00703836068
:1016EC0070477047704770477047704710B5044695
:1016FC0003681A6912F0020F11D0DA6812F0020FA7
:10170C000DD06FF002021A610123037703689B6905
:10171C0013F0030F70D0FFF7E6FF00232377236845
:10172C001A6912F0040F12D0DA6812F0040F0ED0FE
:10173C006FF004021A610223237723689B6913F468
:10174C00407F5FD02046FFF7CEFF0023237723682E
:10175C001A6912F0080F12D0DA6812F0080F0ED0C6
:10176C006FF008021A61042323772368DB6913F0F6
:10177C00030F4ED02046FFF7B6FF002323772368D4
:10178C001A6912F0100F12D0DA6812F0100F0ED086
:10179C006FF010021A61082323772368DB6913F4B6
:1017AC00407F3DD02046FFF79EFF00232377236820
:1017BC001A6912F0010F03D0DA6812F0010F36D15A
:1017CC0023681A6912F0800F03D0DA6812F0800FC8
:1017DC0034D123681A6912F0400F03D0DA6812F082
:1017EC00400F32D123681A6912F0200F03D0DA6847
:1017FC0012F0200F30D110BDFFF774FF2046FFF719
:10180C0073FF8AE72046FFF76DFF2046FFF76CFF5A
:10181C009BE72046FFF766FF2046FFF765FFACE726
:10182C002046FFF75FFF2046FFF75EFFBDE76FF036
:10183C0001021A612046FFF754FFC1E76FF08002E6
:10184C001A61204600F0BDF9C3E76FF040021A613F
:10185C002046FFF74AFFC5E76FF020021A612046C9
:10186C0000F0AEF9C7E7000003681B4A90420AD0AB
:10187C00B0F1804F07D0A2F59432904203D002F51C
:10188C008062904203D123F070034A681343124ADA
:10189C0090420AD0B0F1804F07D0A2F5943290421A
:1018AC0003D002F58062904203D123F44073CA68DE
:1018BC00134323F080034A69134303608B68C362AC
:1018CC000B688362044B984202D00123436170473A
:1018DC000B690363F9E700BF002C014040B310B55E
:1018EC00044690F83D30F3B1022384F83D30214694
:1018FC0051F8040BFFF7B8FF012384F8463084F845
:10190C003E3084F83F3084F8403084F8413084F81D
:10191C00423084F8433084F8443084F8453084F8FD
:10192C003D30002010BD80F83C30FFF76BF8DBE752
:10193C000120704710B4846824F47F4C42EA0322DF
:10194C000A4342EA0C02826010BC704790F83C30AB
:10195C00012B78D010B50446012380F83C300223CB
:10196C0080F83D300268936823F47F4323F07703BB
:10197C0093600B68602B4CD029D8402B54D00CD9D9
:10198C00502B22D1CA6849680068FFF77DFE5021B0
:10199C002068FFF79EFE002005E0202B0DD009D912
:1019AC00302B0AD00120012384F83D30002384F829
:1019BC003C3010BD0BB1102B05D119462068FFF738
:1019CC0088FE0020EFE70120EDE70120EBE7B3F5FF
:1019DC00805F34D0B3F5005F0CD1CB684A6889685E
:1019EC000068FFF7A7FF2268936843F48043936075
:1019FC000020D8E7702B24D1CB684A68896800682E
:101A0C00FFF798FF2268936843F0770393600020F8
:101A1C00C9E7CA6849680068FFF748FE602120687A
:101A2C00FFF757FE0020BEE7CA6849680068FFF759
:101A3C002BFE40212068FFF74CFE0020B3E700206E
:101A4C00B1E70120AFE70220704710B50468A26827
:101A5C0022F070024B68134323F007030A681A4301
:101A6C00A2604B68502B32D00BD9602B36D0702B28
:101A7C0043D10B698A68C9680068FFF75BFF0020D7
:101A8C000FE0402B0ED001D901200AE0202B2CD0E6
:101A9C0003D9302B2FD1002003E043B3102B28D1D6
:101AAC00002010BD0B68052B29D003681C6A1A6A2C
:101ABC0022F001021A620268936923F0F0030969AB
:101ACC0043EA0113936103681C620020E9E70A6989
:101ADC0089680068FFF7D8FD0020E2E70A69896889
:101AEC000068FFF7E3FD0020DBE70020D9E70020CA
:101AFC00D7E70120D5E70120D3E70120D1E701206A
:101B0C00CFE790F83C30012B22D010B504460123CE
:101B1C0080F83C30022380F83D30FFF796FF80B907
:101B2C002268D36823F04003D3602268D36823F47F
:101B3C008043D360012384F83D30002384F83C308B
:101B4C0010BD012084F83D00002384F83C30F7E7F9
:101B5C000220704790F83C20012A2CD010B4034688
:101B6C00012280F83C20022280F83D200268506857
:101B7C00946820F0700C086840EA0C0050601A68F9
:101B8C000E4882420AD0B2F1804F07D0A0F59430B3
:101B9C00824203D000F58060824204D124F080049C
:101BAC00496821439160012283F83D20002083F88D
:101BBC003C0010BC70470220704700BF002C014055
:101BCC0070477047026802F10C0353E8003F23F49E
:101BDC0090730C3242E800310029F3D1026802F113
:101BEC00140353E8003F23F00103143242E80031A0
:101BFC000029F3D1036B012B05D0202380F8423050
:101C0C00002303637047026802F10C0353E8003FA2
:101C1C0023F010030C3242E800310029F3D1ECE739
:101C2C0090F84130DBB2212B01D002207047836841
:101C3C00B3F5805F17D0036A5A1C02621A780368E6
:101C4C005A60C38C9BB2013B9BB2C3844BB90268F4
:101C5C00D36823F08003D3600268D36843F0400359
:101C6C00D360002070470369002BE4D1036A1B8802
:101C7C000268C3F308035360036A02330362E0E7AC
:101C8C0010B504460268136923F44053C1680B4332
:101C9C00136183680269134342691A430168CB6874
:101CAC0023F4B05323F00C031343CB600268536945
:101CBC0023F4407381690B4353610268134B9A42BE
:101CCC0020D0FFF7C1FC024602EB820202EB82023B
:101CDC0063689B00B2FBF3F20D48A0FB023149098B
:101CEC00642303FB11231B013233A0FB03035B09A9
:101CFC0003F0F00202EB011203F00F03216813440E
:101D0C008B6010BDFFF7B0FC0246DDE700380140E8
:101D1C001F85EB512DE9F84305460F4616469946AB
:101D2C00DDF820802B681C6837EA04040CBF012402
:101D3C000024B4422DD1B8F1FF3FF3D0B8F1000F1D
:101D4C0005D0FEF767FFA0EB09004045EAD92A68E9
:101D5C0002F10C0353E8003F23F4D0730C3242E839
:101D6C0000310029F3D12A6802F1140353E8003F33
:101D7C0023F00103143242E800310029F3D120236F
:101D8C0085F8413085F84230002385F84030032037
:101D9C0000E00020BDE8F88360B310B5044690F86D
:101DAC00413013B3242384F841302268D36823F4E0
:101DBC000053D3602046FFF763FF2268136923F4B6
:101DCC00904313612268536923F02A0353612268FC
:101DDC00D36843F40053D36000206064202384F85C
:101DEC00413084F84230606310BD80F84030FEF71B
:101DFC0063FED7E7012070472DE9F04182B01E4603
:101E0C0090F84130DBB2202B4BD104460D46904666
:101E1C0000294AD00AB9012044E00023436421235D
:101E2C0080F84130FEF7F6FE0746A4F82480A4F8AB
:101E3C002680A368B3F5805F02D04FF000080FE056
:101E4C002369FBB14FF000080AE038F8023B226826
:101E5C00C3F308035360E28C92B2013A92B2E2846B
:101E6C00E38C9BB28BB100963B460022802120462E
:101E7C00FFF750FFD8B9002DE7D015F8012B2368D8
:101E8C005A60E8E7A8460025EAE700963B460022A0
:101E9C0040212046FFF73EFF58B9202384F84130FB
:101EAC0000E0022002B0BDE8F0810120FAE7032037
:101EBC00F8E70320F6E7704708B50168CA6822F016
:101ECC004002CA60202280F84120FFF7F4FF002076
:101EDC0008BD704708B5406A0023C385C384FFF76B
:101EEC00F8FF08BD704790F84230DBB2222B69D165
:101EFC008368B3F5805F4FD0826AB3F5805F04D0FE
:101F0C00002B56D10369002B53D103685B68137007
:101F1C00836A01338362C38D9BB2013B9BB2C38541
:101F2C00002B51D100B583B00268D36823F0200395
:101F3C00D3600268D36823F48073D360026853695A
:101F4C0023F001035361202380F8423000234363C4
:101F5C00036B012B33D100230363026802F10C03E2
:101F6C0053E8003F23F010030C3242E80031002903
:101F7C00F3D103681A6812F0100F06D000220192F8
:101F8C001A6801925B680193019B818DFFF7AAFF90
:101F9C00002003B05DF804FB0269002AACD1826A10
:101FAC0003685B68C3F308031380836A023383629C
:101FBC00B1E703685B6803F07F031370A8E7FEF7D3
:101FCC00F1F9E5E7022070470020704710B582B0A8
:101FDC00044602681368D068516913F00F0F09D1D9
:101FEC0013F0200F0CD010F0200F09D02046FFF773
:101FFC007AFF16E011F0010115D110F4907F12D187
:10200C00216B012979D013F0800F03D010F0800FD1
:10201C0040F0138113F0400F03D010F0400F40F04C
:10202C00108102B010BD13F0010F06D010F4807FA8
:10203C0003D0626C42F00102626413F0040F04D00E
:10204C0019B1626C42F00202626413F0020F04D008
:10205C0019B1626C42F00402626413F0080F07D0ED
:10206C0010F0200F00D119B1626C42F008026264CA
:10207C00626C002AD5D013F0200F02D010F0200F84
:10208C0029D123685B6903F04003626C12F0080FDE
:10209C0000D163B32046FFF795FD23685B6913F00D
:1020AC00400F20D0226802F1140353E8003F23F0C4
:1020BC004003143242E800310029F3D1E36B73B1D1
:1020CC00624A5A63E06BFEF75BFE0028A9D0E06B16
:1020DC00436B9847A5E72046FFF705FFD1E720465D
:1020EC00FFF7F7FE9DE72046FFF7F3FE99E7204642
:1020FC00FFF7EFFE0023636493E713F0100F82D019
:10210C0010F0100F3FF47FAF00230193136801937D
:10211C0053680193019B536913F0400F51D0E26B4C
:10212C0013685B689BB2002B3FF47BAFA18D994287
:10213C007FF677AFE3859369202B37D0226802F1C5
:10214C000C0353E8003F23F480730C3242E8003157
:10215C000029F3D1226802F1140353E8003F23F065
:10216C000103143242E800310029F3D1226802F154
:10217C00140353E8003F23F04003143242E80031CB
:10218C000029F3D1202384F84230002323632268F2
:10219C0002F10C0353E8003F23F010030C3242E829
:1021AC0000310029F3D1E06BFEF7C6FD0223636317
:1021BC00A18DE38D9BB2C91A89B22046FFF792FE1E
:1021CC002FE7A18DE38D9BB2C91A89B2E38D9BB227
:1021DC00002B3FF426AF00293FF423AF226802F115
:1021EC000C0353E8003F23F490730C3242E80030A8
:1021FC000028F3D1226802F1140353E8003F23F0C6
:10220C000103143242E800300028F3D1202384F873
:10221C00423000232363226802F10C0353E8003F91
:10222C0023F010030C3242E800300028F3D10223D3
:10223C0063632046FFF756FEF3E62046FFF7F0FCFB
:10224C00EFE62046FFF738FEEBE600BFE11E000884
:10225C0090F8413090F842001843704781628285B3
:10226C00C28500234364222380F84230036923B1E2
:10227C000268D36843F48073D3600268536943F0F7
:10228C00010353610268D36843F02003D36000203C
:10229C00704708B590F84230DBB2202B08D149B119
:1022AC000AB9012008BD00230363FFF7D7FFF9E744
:1022BC000220F7E70120F5E770B5860747D0541EDA
:1022CC00002A3ED00346CAB201E0013C39D303F8E0
:1022DC00012B9D07F9D1032C2CD9CDB205EB05258B
:1022EC000F2C1A4605EB054534D9A4F1100C2CF033
:1022FC000F0603F1100EB6444FEA1C1C1560556016
:10230C009560D56010327245F8D10CF1010214F0D1
:10231C000C0F03EB021204F00F0C13D0ACF10403FE
:10232C0023F003030433134442F8045B9A42FBD1B9
:10233C000CF003042CB1C9B21C4403F8011B9C42E1
:10234C00FBD170BD64461346002CF4D1F9E703466B
:10235C001446C0E7A446E1E711F0FF01034600F084
:10236C00030239D08ABB026810B501EB012E4EEA8C
:10237C000E4E8EEA0204A2F1013323EA0203A4F109
:10238C00013222EA0402134313F0803F0FD150F8BC
:10239C00044F84EA0E0CA4F10133ACF1013223EAB0
:1023AC00040322EA0C02134313F0803FEFD00378AE
:1023BC0023B936E010F8013F002B32D09942F9D105
:1023CC0010BD8A4228D09A0729D01A7818460133B2
:1023DC00002AF6D110467047CAB90268A2F101333F
:1023EC0023EA020313F0803F08D150F8042FA2F126
:1023FC00013323EA020313F0803FF6D003785BB17C
:10240C0010F8013F002BFBD17047990705D01846F7
:10241C0013F8012B002AF8D170471846DDE718464F
:10242C00A1E7184610BD00BF01292DE9F0415AD98A
:10243C0001274FF0000E4FF0FF34BC463B4607E03F
:10244C009E464FF0010C1F1B0EEB0C0399420ED94C
:10245C00051915F80C50C65CAE42F1D333D00127E8
:10246C00BC467446BE440EEB0C039942F0D84FF0B8
:10247C0001084FF0000E4FF0FF35C446434617607D
:10248C0008E09E464FF0010CA3EB05080EEB0C0385
:10249C0099420FD9461916F80C60C75CB742F0D8B0
:1024AC0019D04FF00108C4467546C6440EEB0C0318
:1024BC009942EFD80135601C854202D32846C2F8F8
:1024CC000080BDE8F081BC450ABFE6440CF1010C6C
:1024DC004FF0010CB8E7C4450ABFE6440CF1010CFF
:1024EC004FF0010CD2E74FF001080025E6E700BFE2
:1024FC002DE9F04F9346ADF21C4D05AA80468A4655
:10250C00584619461C46FFF78FFF814613460DF2BD
:10251C00144243F8044F9342FBD16CB1601E5844F3
:10252C000BF1FF3206AD12F8011FA31A013B5B44FD
:10253C00824245F82130F6D1059B4A4658460BEBB2
:10254C000301019300F0F6F9002879D107460546FE
:10255C0044F40063AAEB040E0293661EAE4512D33C
:10256C0008EB050C1CF8063006AA52F82330CBB148
:10257C0027B1019A9A4284BF1346E31A1D44AE4513
:10258C004FF00007ECD208EB0A00029900F002FAB7
:10259C008244AAEB040EAE45E2D200200DF21C4D93
:1025AC00BDE8F08F4F453B4638BF4B469E4218D98D
:1025BC00591EEA1859444244009502E001339E42E8
:1025CC000ED912F8010B11F8015F8542F6D09E422C
:1025DC00009D06D9C9F101022A4400279D18BDE7C8
:1025EC00009D4F4509F1FF3380F0828005EB090215
:1025FC0042440BEB09010095CDF80C9002E09F4290
:10260C0013D04B4611F8015D12F8010D03F1FF399F
:10261C008542F4D0009DDDF80C90013301379F42C8
:10262C0009D8019B1D44E71A98E701379F42009D8A
:10263C00DDF80C90F5D960460DF21C4DBDE8F08F1D
:10264C00A4EB09034B4538BF4B460025013344F43A
:10265C000062AAEB040E0092661E01930593AE4530
:10266C0009D308EB0500835D06AA52F823306BB141
:10267C001D44AE45F5D208EB0A00009900F08AF92A
:10268C008244AAEB040EAE45EBD286E7B14517D2D5
:10269C0009F1FF3105EB09024B465944424402E073
:1026AC000133B3420CD212F8017B11F801CFBC45B7
:1026BC00F6D09E4204D9C9F101022A44D518CEE7BE
:1026CC00B9F1000F3FF46AAF05EB090141440BEB84
:1026DC00090203E0013B5B453FF460AF134611F880
:1026EC00017D12F801CDBC45F4D0019B1D44C0E71F
:1026FC004B4693E72DE9F0410D460978044690B01E
:10270C00002954D06A78002A00F08280AB78002B24
:10271C0051D0E8782E68002800F081802B79002BAE
:10272C0056D0284600F0C8F80646204646F40071FC
:10273C0000F030F986425AD8FE2E00F28880801BB9
:10274C00271840226846711CFFF7B6FD7EB16A1E41
:10275C005FFA86FC901912F8013F03F03F034033F7
:10276C00A91A6B446144904203F8401CF3D1013C1C
:10277C00A35D03F03F0340336B4413F8403C1C440F
:10278C00A74203D238E04444A74235D314F806C01C
:10279C0020460CF03F0C0CF140030DEB030C3246C1
:1027AC0029461CF8408C00F0C5F80028EBD12046D7
:1027BC0010B0BDE8F081007842EA0142B8B140EABD
:1027CC0003439A42214614F8010FF7D14C1EEEE751
:1027DC00227862B131BA01E099421ED0204642EA19
:1027EC00032314F8012F002AF6D1994215D00024A6
:1027FC00204610B0BDE8F081BB5DB819002BF6D0B7
:10280C004FF4006100F0C6F80744A742AFD2EEE7E0
:10281C0010B0BDE8F041FFF79FBDC41EC7E712041E
:10282C0042EA0162217842EA03230029DFD0024602
:10283C0001E00029DBD041EA0200B3EB002F254672
:10284C004FEA002214F8011FF3D1AC1EAFE701468A
:10285C0033462A46204610B0BDE8F041FFF748BE8B
:10286C0070B50F4B0F4DAB42A3EB050607D0002400
:10287C00B61055F8043B01349847A642F9D800F03D
:10288C00EFF8094D094B5E1BAB424FEAA60606D08A
:10289C00002455F8043B01349847A642F9D870BD82
:1028AC00242B0008242B0008242B00082C2B0008B8
:1028BC00704700BF704700BF20F0030110F0030009
:1028CC00C0F1000051F8043B00F1040C4FEACC0CB1
:1028DC006FF000021CBF22FA0CF213434FF0010CF4
:1028EC004CEA0C2C4CEA0C4CA3EB0C0222EA030233
:1028FC0012EACC1204BF51F8043B0430F4D0C2F1FC
:10290C00000102EA0102B2FA82F2C2F11F0200EBEC
:10291C00D2007047024B13B1024800F005B8704763
:10292C0000000000C5290008002301461A4618467D
:10293C0000F056B8032A70B511D940EA01039B0781
:10294C001ED104460B4602E0043A032A1CD9194650
:10295C00204653F8045B54F8046BAE42F4D0541E7A
:10296C00AAB1421E013901E0C3180BD012F801EFD5
:10297C0011F801CFA31AE645F6D0AEEB0C0070BDF2
:10298C00541EEEE7184670BD20461946E7E7104680
:10299C0070BD00BF71B1034600EB010C01E0634553
:1029AC0006D01A46117801330029F8D1101A704755
:1029BC00181A70470846704738B5074D074C2C1B42
:1029CC00A41005D0013C55F8043D9847002CF9D1D2
:1029DC00BDE8384000F04AB8302B00082C2B00081A
:1029EC002DE9F8431B4D0646286898460F4691463C
:1029FC00FFF75EFF184B1C681CB3286865681F2D19
:102A0C0022DC4EB96B1C0235636044F82570FFF76D
:102A1C0051FF0020BDE8F883012304EB8501C1F8C8
:102A2C008890D4F88821AB401A43022EC4F8882130
:102A3C00C1F80881E6D1D4F88C211A43C4F88C2152
:102A4C00E0E7064C1C60D8E7FFF734FF4FF0FF308F
:102A5C00E0E700BF0C0000206C0200207002002098
:102A6C00F8B500BFF8BC08BC9E467047F8B500BF6F
:082A7C00F8BC08BC9E4670473F
:102A84004F4B00004154000041542B43574D4F44D9
:102A9400453D3200726561647900000041542B5257
:102AA4005354000041542B43575341503D22657306
:102AB4007038323636222C223132333435363738B8
:102AC40039222C312C34000041542B4349504D55AC
:102AD400583D310041542B434950534552564552B9
:102AE4003D312C383038300041542B434950534544
:102AF4004E44000000000000010203040000000036
:102B04000000000001020304060708090102000096
:102B140002030405060708090A0B0C0D0E0F10101A
:082B24002129000875010008D9
:042B2C004D0100084F
:102B30000024F400010000001000000068020020E2
:0400000508000B4D97
:00000001FF
